{"abi":[{"type":"constructor","inputs":[],"stateMutability":"nonpayable"},{"type":"function","name":"DOMAIN_SEPARATOR","inputs":[],"outputs":[{"name":"","type":"bytes32","internalType":"bytes32"}],"stateMutability":"view"},{"type":"function","name":"EIP712_DOMAIN_TYPEHASH","inputs":[],"outputs":[{"name":"","type":"bytes32","internalType":"bytes32"}],"stateMutability":"view"},{"type":"function","name":"PERMIT_TYPEHASH","inputs":[],"outputs":[{"name":"","type":"bytes32","internalType":"bytes32"}],"stateMutability":"view"},{"type":"function","name":"acceptOwnership","inputs":[],"outputs":[],"stateMutability":"nonpayable"},{"type":"function","name":"addBlacklist","inputs":[{"name":"addr","type":"address","internalType":"address"}],"outputs":[],"stateMutability":"nonpayable"},{"type":"function","name":"allowance","inputs":[{"name":"ownerAddr","type":"address","internalType":"address"},{"name":"spender","type":"address","internalType":"address"}],"outputs":[{"name":"","type":"uint256","internalType":"uint256"}],"stateMutability":"view"},{"type":"function","name":"approve","inputs":[{"name":"spender","type":"address","internalType":"address"},{"name":"amount","type":"uint256","internalType":"uint256"}],"outputs":[{"name":"","type":"bool","internalType":"bool"}],"stateMutability":"nonpayable"},{"type":"function","name":"balanceOf","inputs":[{"name":"account","type":"address","internalType":"address"}],"outputs":[{"name":"","type":"uint256","internalType":"uint256"}],"stateMutability":"view"},{"type":"function","name":"batchAddBlacklist","inputs":[{"name":"addrs","type":"address[]","internalType":"address[]"}],"outputs":[],"stateMutability":"nonpayable"},{"type":"function","name":"batchFreeze","inputs":[{"name":"addrs","type":"address[]","internalType":"address[]"}],"outputs":[],"stateMutability":"nonpayable"},{"type":"function","name":"batchRemoveBlacklist","inputs":[{"name":"addrs","type":"address[]","internalType":"address[]"}],"outputs":[],"stateMutability":"nonpayable"},{"type":"function","name":"batchUnfreeze","inputs":[{"name":"addrs","type":"address[]","internalType":"address[]"}],"outputs":[],"stateMutability":"nonpayable"},{"type":"function","name":"blacklisted","inputs":[{"name":"","type":"address","internalType":"address"}],"outputs":[{"name":"","type":"bool","internalType":"bool"}],"stateMutability":"view"},{"type":"function","name":"burn","inputs":[{"name":"amount","type":"uint256","internalType":"uint256"}],"outputs":[],"stateMutability":"nonpayable"},{"type":"function","name":"burnFrom","inputs":[{"name":"account","type":"address","internalType":"address"},{"name":"amount","type":"uint256","internalType":"uint256"}],"outputs":[],"stateMutability":"nonpayable"},{"type":"function","name":"cancelOwnershipTransfer","inputs":[],"outputs":[],"stateMutability":"nonpayable"},{"type":"function","name":"cap","inputs":[],"outputs":[{"name":"","type":"uint256","internalType":"uint256"}],"stateMutability":"view"},{"type":"function","name":"decimals","inputs":[],"outputs":[{"name":"","type":"uint8","internalType":"uint8"}],"stateMutability":"view"},{"type":"function","name":"decreaseAllowance","inputs":[{"name":"spender","type":"address","internalType":"address"},{"name":"subtractedValue","type":"uint256","internalType":"uint256"}],"outputs":[{"name":"","type":"bool","internalType":"bool"}],"stateMutability":"nonpayable"},{"type":"function","name":"destroyBlackFunds","inputs":[{"name":"addr","type":"address","internalType":"address"}],"outputs":[],"stateMutability":"nonpayable"},{"type":"function","name":"forceBurn","inputs":[{"name":"account","type":"address","internalType":"address"},{"name":"amount","type":"uint256","internalType":"uint256"}],"outputs":[],"stateMutability":"nonpayable"},{"type":"function","name":"freezeAddress","inputs":[{"name":"addr","type":"address","internalType":"address"}],"outputs":[],"stateMutability":"nonpayable"},{"type":"function","name":"frozen","inputs":[{"name":"","type":"address","internalType":"address"}],"outputs":[{"name":"","type":"bool","internalType":"bool"}],"stateMutability":"view"},{"type":"function","name":"getAddressStatus","inputs":[{"name":"addr","type":"address","internalType":"address"}],"outputs":[{"name":"isFrozen","type":"bool","internalType":"bool"},{"name":"isBlacklisted","type":"bool","internalType":"bool"},{"name":"balance","type":"uint256","internalType":"uint256"}],"stateMutability":"view"},{"type":"function","name":"getBlackListStatus","inputs":[{"name":"addr","type":"address","internalType":"address"}],"outputs":[{"name":"","type":"bool","internalType":"bool"}],"stateMutability":"view"},{"type":"function","name":"getOwner","inputs":[],"outputs":[{"name":"","type":"address","internalType":"address"}],"stateMutability":"view"},{"type":"function","name":"increaseAllowance","inputs":[{"name":"spender","type":"address","internalType":"address"},{"name":"addedValue","type":"uint256","internalType":"uint256"}],"outputs":[{"name":"","type":"bool","internalType":"bool"}],"stateMutability":"nonpayable"},{"type":"function","name":"initialize","inputs":[{"name":"_name","type":"string","internalType":"string"},{"name":"_symbol","type":"string","internalType":"string"},{"name":"_decimals","type":"uint8","internalType":"uint8"},{"name":"_initialSupply","type":"uint256","internalType":"uint256"},{"name":"_owner","type":"address","internalType":"address"}],"outputs":[],"stateMutability":"nonpayable"},{"type":"function","name":"initializeV2","inputs":[{"name":"_version","type":"uint256","internalType":"uint256"},{"name":"_cap","type":"uint256","internalType":"uint256"}],"outputs":[],"stateMutability":"nonpayable"},{"type":"function","name":"isBlackListed","inputs":[{"name":"addr","type":"address","internalType":"address"}],"outputs":[{"name":"","type":"bool","internalType":"bool"}],"stateMutability":"view"},{"type":"function","name":"mint","inputs":[{"name":"to","type":"address","internalType":"address"},{"name":"amount","type":"uint256","internalType":"uint256"}],"outputs":[],"stateMutability":"nonpayable"},{"type":"function","name":"name","inputs":[],"outputs":[{"name":"","type":"string","internalType":"string"}],"stateMutability":"view"},{"type":"function","name":"nonces","inputs":[{"name":"","type":"address","internalType":"address"}],"outputs":[{"name":"","type":"uint256","internalType":"uint256"}],"stateMutability":"view"},{"type":"function","name":"owner","inputs":[],"outputs":[{"name":"","type":"address","internalType":"address"}],"stateMutability":"view"},{"type":"function","name":"pause","inputs":[],"outputs":[],"stateMutability":"nonpayable"},{"type":"function","name":"paused","inputs":[],"outputs":[{"name":"","type":"bool","internalType":"bool"}],"stateMutability":"view"},{"type":"function","name":"pendingOwner","inputs":[],"outputs":[{"name":"","type":"address","internalType":"address"}],"stateMutability":"view"},{"type":"function","name":"permit","inputs":[{"name":"tokenOwner","type":"address","internalType":"address"},{"name":"spender","type":"address","internalType":"address"},{"name":"value","type":"uint256","internalType":"uint256"},{"name":"deadline","type":"uint256","internalType":"uint256"},{"name":"v","type":"uint8","internalType":"uint8"},{"name":"r","type":"bytes32","internalType":"bytes32"},{"name":"s","type":"bytes32","internalType":"bytes32"}],"outputs":[],"stateMutability":"nonpayable"},{"type":"function","name":"proposeOwnership","inputs":[{"name":"newOwner","type":"address","internalType":"address"}],"outputs":[],"stateMutability":"nonpayable"},{"type":"function","name":"recoverTRX","inputs":[{"name":"to","type":"address","internalType":"address"}],"outputs":[],"stateMutability":"nonpayable"},{"type":"function","name":"recoverToken","inputs":[{"name":"tokenAddr","type":"address","internalType":"address"},{"name":"to","type":"address","internalType":"address"},{"name":"amount","type":"uint256","internalType":"uint256"}],"outputs":[],"stateMutability":"nonpayable"},{"type":"function","name":"recoverTokens","inputs":[{"name":"to","type":"address","internalType":"address"}],"outputs":[],"stateMutability":"nonpayable"},{"type":"function","name":"removeBlacklist","inputs":[{"name":"addr","type":"address","internalType":"address"}],"outputs":[],"stateMutability":"nonpayable"},{"type":"function","name":"setCap","inputs":[{"name":"newCap","type":"uint256","internalType":"uint256"}],"outputs":[],"stateMutability":"nonpayable"},{"type":"function","name":"symbol","inputs":[],"outputs":[{"name":"","type":"string","internalType":"string"}],"stateMutability":"view"},{"type":"function","name":"totalSupply","inputs":[],"outputs":[{"name":"","type":"uint256","internalType":"uint256"}],"stateMutability":"view"},{"type":"function","name":"transfer","inputs":[{"name":"to","type":"address","internalType":"address"},{"name":"amount","type":"uint256","internalType":"uint256"}],"outputs":[{"name":"","type":"bool","internalType":"bool"}],"stateMutability":"nonpayable"},{"type":"function","name":"transferFrom","inputs":[{"name":"from","type":"address","internalType":"address"},{"name":"to","type":"address","internalType":"address"},{"name":"amount","type":"uint256","internalType":"uint256"}],"outputs":[{"name":"","type":"bool","internalType":"bool"}],"stateMutability":"nonpayable"},{"type":"function","name":"unfreezeAddress","inputs":[{"name":"addr","type":"address","internalType":"address"}],"outputs":[],"stateMutability":"nonpayable"},{"type":"function","name":"unpause","inputs":[],"outputs":[],"stateMutability":"nonpayable"},{"type":"function","name":"version","inputs":[],"outputs":[{"name":"","type":"uint256","internalType":"uint256"}],"stateMutability":"view"},{"type":"event","name":"AddressFrozen","inputs":[{"name":"addr","type":"address","indexed":true,"internalType":"address"}],"anonymous":false},{"type":"event","name":"AddressUnfrozen","inputs":[{"name":"addr","type":"address","indexed":true,"internalType":"address"}],"anonymous":false},{"type":"event","name":"Approval","inputs":[{"name":"owner","type":"address","indexed":true,"internalType":"address"},{"name":"spender","type":"address","indexed":true,"internalType":"address"},{"name":"value","type":"uint256","indexed":false,"internalType":"uint256"}],"anonymous":false},{"type":"event","name":"BlackFundsDestroyed","inputs":[{"name":"addr","type":"address","indexed":true,"internalType":"address"},{"name":"amount","type":"uint256","indexed":false,"internalType":"uint256"}],"anonymous":false},{"type":"event","name":"BlacklistAdded","inputs":[{"name":"addr","type":"address","indexed":true,"internalType":"address"}],"anonymous":false},{"type":"event","name":"BlacklistRemoved","inputs":[{"name":"addr","type":"address","indexed":true,"internalType":"address"}],"anonymous":false},{"type":"event","name":"Burn","inputs":[{"name":"from","type":"address","indexed":true,"internalType":"address"},{"name":"amount","type":"uint256","indexed":false,"internalType":"uint256"}],"anonymous":false},{"type":"event","name":"CapUpdated","inputs":[{"name":"newCap","type":"uint256","indexed":false,"internalType":"uint256"}],"anonymous":false},{"type":"event","name":"ExternalTokenRecovered","inputs":[{"name":"token","type":"address","indexed":true,"internalType":"address"},{"name":"to","type":"address","indexed":true,"internalType":"address"},{"name":"amount","type":"uint256","indexed":false,"internalType":"uint256"}],"anonymous":false},{"type":"event","name":"ForceBurn","inputs":[{"name":"from","type":"address","indexed":true,"internalType":"address"},{"name":"amount","type":"uint256","indexed":false,"internalType":"uint256"}],"anonymous":false},{"type":"event","name":"Mint","inputs":[{"name":"to","type":"address","indexed":true,"internalType":"address"},{"name":"amount","type":"uint256","indexed":false,"internalType":"uint256"}],"anonymous":false},{"type":"event","name":"OwnershipProposed","inputs":[{"name":"previousOwner","type":"address","indexed":true,"internalType":"address"},{"name":"proposedOwner","type":"address","indexed":true,"internalType":"address"}],"anonymous":false},{"type":"event","name":"OwnershipTransferred","inputs":[{"name":"previousOwner","type":"address","indexed":true,"internalType":"address"},{"name":"newOwner","type":"address","indexed":true,"internalType":"address"}],"anonymous":false},{"type":"event","name":"Pause","inputs":[],"anonymous":false},{"type":"event","name":"TRXRecovered","inputs":[{"name":"to","type":"address","indexed":true,"internalType":"address"},{"name":"amount","type":"uint256","indexed":false,"internalType":"uint256"}],"anonymous":false},{"type":"event","name":"TokensRecovered","inputs":[{"name":"to","type":"address","indexed":true,"internalType":"address"},{"name":"amount","type":"uint256","indexed":false,"internalType":"uint256"}],"anonymous":false},{"type":"event","name":"Transfer","inputs":[{"name":"from","type":"address","indexed":true,"internalType":"address"},{"name":"to","type":"address","indexed":true,"internalType":"address"},{"name":"value","type":"uint256","indexed":false,"internalType":"uint256"}],"anonymous":false},{"type":"event","name":"Unpause","inputs":[],"anonymous":false},{"type":"error","name":"AddressNotBlacklisted","inputs":[]},{"type":"error","name":"AllowanceBelowZero","inputs":[]},{"type":"error","name":"AlreadyBlacklisted","inputs":[]},{"type":"error","name":"AlreadyFrozen","inputs":[]},{"type":"error","name":"AlreadyPaused","inputs":[]},{"type":"error","name":"ApproveFromZero","inputs":[]},{"type":"error","name":"ApproveToZeroAddress","inputs":[]},{"type":"error","name":"BatchEmpty","inputs":[]},{"type":"error","name":"BlacklistZeroAddress","inputs":[]},{"type":"error","name":"BurnExceedsBalance","inputs":[]},{"type":"error","name":"BurnFromZero","inputs":[]},{"type":"error","name":"CallerNotOwner","inputs":[]},{"type":"error","name":"CannotBlacklistOwner","inputs":[]},{"type":"error","name":"CannotFreezeOwner","inputs":[]},{"type":"error","name":"CapBelowTotalSupply","inputs":[]},{"type":"error","name":"DecimalsTooHigh","inputs":[]},{"type":"error","name":"ErrAddressBlacklisted","inputs":[]},{"type":"error","name":"ErrAddressFrozen","inputs":[]},{"type":"error","name":"ForceBurnFromZero","inputs":[]},{"type":"error","name":"FreezeZeroAddress","inputs":[]},{"type":"error","name":"InsufficientAllowance","inputs":[]},{"type":"error","name":"InsufficientBalance","inputs":[]},{"type":"error","name":"InvalidInitialization","inputs":[]},{"type":"error","name":"InvalidPermit","inputs":[]},{"type":"error","name":"MintExceedsCap","inputs":[]},{"type":"error","name":"MintToContract","inputs":[]},{"type":"error","name":"MintToZero","inputs":[]},{"type":"error","name":"NewOwnerZero","inputs":[]},{"type":"error","name":"NoPendingTransfer","inputs":[]},{"type":"error","name":"NoTRXToRecover","inputs":[]},{"type":"error","name":"NoTokensToRecover","inputs":[]},{"type":"error","name":"NotBlacklisted","inputs":[]},{"type":"error","name":"NotFrozen","inputs":[]},{"type":"error","name":"NotInitializing","inputs":[]},{"type":"error","name":"NotPaused","inputs":[]},{"type":"error","name":"NotPendingOwner","inputs":[]},{"type":"error","name":"OwnerZero","inputs":[]},{"type":"error","name":"PermitExpired","inputs":[]},{"type":"error","name":"RecoverTRXToZero","inputs":[]},{"type":"error","name":"RecoverToZero","inputs":[]},{"type":"error","name":"RecoverTokenFailed","inputs":[]},{"type":"error","name":"RecoverTokenSelf","inputs":[]},{"type":"error","name":"RecoverTokenToZero","inputs":[]},{"type":"error","name":"ReentrantCall","inputs":[]},{"type":"error","name":"SameAsCurrentOwner","inputs":[]},{"type":"error","name":"TokenPaused","inputs":[]},{"type":"error","name":"TransferFromZero","inputs":[]},{"type":"error","name":"TransferTRXFailed","inputs":[]},{"type":"error","name":"TransferToContract","inputs":[]},{"type":"error","name":"TransferToZero","inputs":[]}],"bytecode":{"object":"0x608080604052346040576000549060ff8260081c1660315760ff19821660ff176000556040516127f290816100468239f35b631afcd79f60e31b8152600490fd5b600080fdfe60a060408181526004918236101561001657600080fd5b60006080526080513560e01c90816306fdde031461208f57508063095ea7b31461202957806316114acd14611f2f57806318160ddd14611f1157806323452b9c14611eaf57806323b872dd14611dd35780632dbc9db914611d2a57806330adf81f14611cee578063313ce56714611ccb578063355274ea14611cab5780633644e51514611c865780633950935114611bf55780633f4ba83a14611b7a57806340c10f1914611a4e57806342966c68146119cf57806347786d371461195d57806351e946d51461189357806354fd4d501461187357806359bf1abe146109585780635c975abb1461184b57806360ea92081461177357806370a0823114611738578063710bf3221461168b57806379ba50971461160557806379cc6790146115b15780637ecebe00146115765780638456cb59146114e8578063893d20e8146113e65780638d128f16146114105780638da5cb5b146113e657806395d89b41146113005780639cfe42da14611226578063a457c2d714611157578063a7229fd914611046578063a9059cbb14610f5b578063a96aea2b14610e91578063bfb8054714610df5578063c7977be714610db9578063d051665014610d79578063d505accf14610b14578063dbac26e914610ad4578063dd62ed3e14610a83578063e226a1b614610a1c578063e2d6f63414610987578063e30c39781461095d578063e47d606014610958578063eb91e651146108bc578063f10567661461081e578063f3571819146103f5578063f3b2bddd1461031d5763f3bdc2281461025957600080fd5b34610317576020366003190112610317576102726121ff565b6007546001600160a01b039081163303610308578116928360805152600a60205260ff83608051205416156102fa575082608051526005602052816080512054806102be575b60805180f35b7fb75973bd2c1c5ab88f6b9c63c7ec73c8c977f6f7919200604deedf8a55d0df98926102ec826020946126d1565b51908152a2388080806102b8565b825163100c679760e21b8152fd5b505051632e6c18c960e11b8152fd5b60805180fd5b5034610317576020366003190112610317576103376121ff565b6007546001600160a01b03919082163303610308576002600c54146103e6576002600c551680156103d857479081156103c957807fe8584249f7f434049c9c4bedb97faee5a82c432feacde54d4fe81b8d1463aacd60208551858152a2608051918291829182915af16103a861250a565b50156103b9576001600c5560805180f35b516001622f592160e11b03198152fd5b505051639b9aae5560e01b8152fd5b505163a9499a4960e01b8152fd5b5050516306fda65d60e31b8152fd5b5090346103175760a03660031901126103175767ffffffffffffffff90803582811161031757610428903690830161230d565b9260243583811161031757610440903690840161230d565b6044359260ff8416809403610317576084356001600160a01b0381169560643595918790036103175760805154600881901c60ff169890891561081457303b155b156108045789156107f0575b5087156107e057604d83116107d0578051948286116106df57600195806104b48854612128565b93601f94858111610771575b5060209060018684111461070157608051926106f6575b5050600019600383901b1c191690871b1786555b80519283116106df57908291610502600254612128565b82811161066b575b5060209183116001146105e757608051926105dc575b5050600019600383901b1c191690841b176002555b8060ff196003541617600355856bffffffffffffffffffffffff60a01b6007541617600755600a0a938481029481860414901517156105c557839055836080515260056020528282608051205580600c55600019600d55600e555190815260008051602061277d833981519152602060805192a3156105b45760805180f35b608051805461ff00191690556102b8565b601190634e487b7160e01b60805152526024608051fd5b015190503880610520565b90869350601f198316916002608051527f405787fa12a823e0f2b7631cc41b3ba8828b3321ca811111fa75cd3aa3bb5ace926080515b8181106106535750841161063a575b505050811b01600255610535565b015160001960f88460031b161c1916905538808061062c565b8284015185558996909401936020938401930161061d565b909192506002608051527f405787fa12a823e0f2b7631cc41b3ba8828b3321ca811111fa75cd3aa3bb5ace8380860160051c820192602087106106d6575b9186958a929594930160051c01915b8281106106c657505061050a565b60805181558695508991016106b8565b925081926106a9565b604185634e487b7160e01b60805152526024608051fd5b0151905038806104d7565b90899350601f19831691846080515260008051602061279d833981519152926080515b81811061075957508411610740575b505050811b0186556104eb565b015160001960f88460031b161c19169055388080610733565b8284015185558c969094019360209384019301610724565b909150886080515260008051602061279d8339815191528580850160051c820192602086106107c7575b918b91869594930160051c01915b8281106107b75750506104c0565b60805181558594508b91016107a9565b9250819261079b565b855163a3095eff60e01b81528490fd5b8551631f05a2bf60e11b81528490fd5b6101019061ffff191617608051553861048d565b865163f92ee8a960e01b81528590fd5b60ff811615610481565b50903461031757816003193601126103175760243590608051549260ff8460081c1615806108ae575b6108a15760ff60028119861617806080515560081c1615938461088d575b5081548310610880575035600e55600d556105b45760805180f35b516364ccaa4560e01b8152fd5b6101029061ffff1916176080515538610865565b5163f92ee8a960e01b8152fd5b50600260ff85161015610847565b5034610317576020366003190112610317576108d66121ff565b6007546001600160a01b039190821633036103085716918260805152600a60205260ff826080512054161561094a57508160805152600a6020526080512060ff1981541690557f1747ca720b1a174a464b6513ace29b1d3190b5f632b9f34147017c81425bfde8608051608051a260805180f35b90516314afda6d60e31b8152fd5b6122b2565b5034610317576080513660031901126103175760085490516001600160a01b039091168152602090f35b50346103175780600319360112610317576109a06121ff565b6007546024359291906001600160a01b039081163303610a0c5781169384156109fe5750916020916109f3827fae84827a82eb947abd680ec34587d4059bafe2bb0223a037efb36abbdfae67a5956126d1565b51908152a260805180f35b82516358d1594560e01b8152fd5b8251632e6c18c960e11b81528590fd5b5034610317576020366003190112610317576060906001600160a01b03610a416121ff565b1660805152600960205260ff8160805120541690600a60205260ff81608051205416906005602052806080512054918151931515845215156020840152820152f35b5034610317578060031936011261031757602090610a9f6121ff565b610aa761221a565b9060018060a01b038091166080515260068452826080512091166080515282528060805120549051908152f35b5034610317576020366003190112610317576020906001600160a01b03610af96121ff565b1660805152600a825260ff8160805120541690519015158152f35b50346103175760e036600319011261031757610b2e6121ff565b610b3661221a565b906044359260643560843560ff81168091036103175760c4359160ff60085460a01c16610d695760018060a01b03918286169384608051526020926009845260ff87608051205416610d59578560805152600a845260ff87608051205416610d4957804211610d39577f7fffffffffffffffffffffffffffffff5d576e7357a4501ddfe92f46681b20a08211610d29578560805152600b84528660805120549060018201808311610d12578760805152600b8652886080512055875190858201927f6e71edae12b1b97f4d1f60370fef10105fa2faae0126114a169c64845d6126c98452888a840152878c1660608401528c608084015260a083015260c082015260c0815260e0810181811067ffffffffffffffff821117610cfb578852519020610c5f61238e565b908751908582019261190160f01b84526022830152604282015260428152610c8681612162565b5190209186519283528383015260a43586830152606082015260805160805152608080519160015afa15610cef576080515116908115918215610ce4575b5050610cd557506102b8935061253a565b5163ddafbaef60e01b81528490fd5b141590503880610cc4565b82513d608051823e3d90fd5b60418d634e487b7160e01b60805152526024608051fd5b60118d634e487b7160e01b60805152526024608051fd5b865163ddafbaef60e01b81528b90fd5b865163068568f360e21b81528b90fd5b865163129de3d360e01b81528b90fd5b865163644ca72b60e11b81528b90fd5b835163e779249560e01b81528890fd5b5034610317576020366003190112610317576020906001600160a01b03610d9e6121ff565b16608051526009825260ff8160805120541690519015158152f35b50346103175760805136600319011261031757602090517f8b73c3c69bb8fe3d512ecc4cf759cc79239f7b179b0ffacaa9a75d522b39400f8152f35b503461031757602036600319011261031757610e0f6121ff565b6007546001600160a01b039190821633036103085716918260805152600960205260ff8260805120541615610e835750816080515260096020526080512060ff1981541690557fc3776b472ebf54114339eec9e4dc924e7ce307a97f5c1ee72b6d474e6e5e8b7c608051608051a260805180f35b9051638208cbe560e01b8152fd5b50903461031757610ea136612265565b600754909391926001600160a01b039182163303610f4d578415610f3f57506080515b848110610ed15760805180f35b8082610ee8610ee36001948989612354565b61237a565b168060805152600a6020528460805120805460ff811615610f375760ff191690556080517f1747ca720b1a174a464b6513ace29b1d3190b5f632b9f34147017c81425bfde89080a25b01610ec4565b505050610f31565b825163143a603360e21b8152fd5b8251632e6c18c960e11b8152fd5b5034610317578060031936011261031757610f746121ff565b9160ff60085460a01c16611038573360805152600960205260ff8260805120541661102a5760018060a01b0383168060805152600960205260ff8360805120541661101b573360805152600a60205260ff8360805120541661100c5760805152600a60205260ff82608051205416610ffe5750610ff7602092602435903361261b565b5160018152f35b905163129de3d360e01b8152fd5b50905163129de3d360e01b8152fd5b50905163644ca72b60e11b8152fd5b905163644ca72b60e11b8152fd5b905163e779249560e01b8152fd5b50346103175761105536612230565b6007546001600160a01b039391929084163303611147576002600c5414611137576002600c5583169283156111275781163081146111175783907f4dccd12aaefd1a40945c3f8d0982630dc8870f248e4036b3052f26bdd7be433e60208751868152a3835191602083019363a9059cbb60e01b855260248401526044830152604482526110e182612162565b60805192608051925191608051905af16110f961250a565b501561110a576001600c5560805180f35b51636be2f04960e11b8152fd5b8451635536ce9560e11b81528690fd5b8451631250f41160e01b81528690fd5b84516306fda65d60e31b81528690fd5b8451632e6c18c960e11b81528690fd5b50346103175780600319360112610317576111706121ff565b916024359060ff60085460a01c16611218573360805152600960205260ff8360805120541661120a573360805152600a60205260ff836080512054166111fc5733608051526006602052826080512060018060a01b03851660805152602052826080512054908282106111ee575092610ff79160209403903361253a565b8351637b1507b360e11b8152fd5b825163129de3d360e01b8152fd5b825163644ca72b60e11b8152fd5b825163e779249560e01b8152fd5b5034610317576020366003190112610317576112406121ff565b6007546001600160a01b039081169391338590036112f057169283156112e15783146112d3578260805152600a60205260ff826080512054166112c557508160805152600a60205260805120600160ff198254161790557f44d5fe68b00f68950fb9c1ff0a61ef7f747b1a36359a7e3a7f3324db4b878967608051608051a260805180f35b905163f53de75f60e01b8152fd5b90516339b9e47160e21b8152fd5b50905163ceff43a960e01b8152fd5b8351632e6c18c960e11b81528390fd5b50346103175760805136600319011261031757805160805160025461132481612128565b808452906020906001908181169081156113bc5750600114611360575b61135c858761135282880383612194565b51918291826121b6565b0390f35b60808051600290525193507f405787fa12a823e0f2b7631cc41b3ba8828b3321ca811111fa75cd3aa3bb5ace5b8385106113a9575050505081016020016113528261135c611341565b805486860184015293820193810161138d565b61135c9795508693506020925061135294915060ff191682840152151560051b8201019294611341565b5034610317576080513660031901126103175760075490516001600160a01b039091168152602090f35b5090346103175761142036612265565b60078054929491936001600160a01b039384163303610f4d578415610f3f57506080515b8481106114515760805180f35b8084611463610ee3600194898b612354565b16801580156114dc575b80156114c3575b6114bd5760808051829052600a60205251858120805460ff1916851790557f44d5fe68b00f68950fb9c1ff0a61ef7f747b1a36359a7e3a7f3324db4b8789679080a25b01611444565b506114b7565b508060805152600a60205260ff85608051205416611474565b5085845416811461146d565b50903461031757608051366003190112610317576007546001600160a01b03163303611568576008549160ff8360a01c1661155b5760ff60a01b198316600160a01b176008556080517f6985a02210a168e66602d3235cb6db0e70f92b3ba4d376a33c0f3d9434bff6259080a160805180f35b51631785c68160e01b8152fd5b9051632e6c18c960e11b8152fd5b5034610317576020366003190112610317576020906001600160a01b0361159b6121ff565b1660805152600b82528060805120549051908152f35b50346103175780600319360112610317576115ca6121ff565b60075460243592906001600160a01b031633036115f6576102b883836115f18233836125bf565b6126d1565b51632e6c18c960e11b81528390fd5b50903461031757608051366003190112610317576008546001600160a01b0392909190838316330361167e57505060075491339083167f8be0079c531659141344cd1fd0a4f28419497f9722a3daafe3b4186f6b6457e0608051608051a36001600160a01b031991821633176007551660085560805180f35b51630614e5c760e21b8152fd5b509034610317576020366003190112610317576116a66121ff565b6007546001600160a01b03908116929133849003611728571692831561171b5782841461170e575050600880546001600160a01b031916831790556080517fb51454ce8c7f26becd312a46c4815553887f2ec876a0b8dc813b87f62edf6f809080a360805180f35b516330313a2160e11b8152fd5b516315ada5d760e01b8152fd5b8451632e6c18c960e11b81528390fd5b5034610317576020366003190112610317576020906001600160a01b0361175d6121ff565b1660805152600582528060805120549051908152f35b5090346103175761178336612265565b60078054929491936001600160a01b039384163303610f4d578415610f3f57506080515b8481106117b45760805180f35b80846117c6610ee3600194898b612354565b168015801561183f575b8015611826575b6118205760808051829052600960205251858120805460ff1916851790557f90811a8edd3b3c17eeaefffc17f639cc69145d41a359c9843994dc25382036909080a25b016117a7565b5061181a565b508060805152600960205260ff856080512054166117d7565b508584541681146117d0565b5034610317576080513660031901126103175760209060ff60085460a01c1690519015158152f35b50346103175760805136600319011261031757602090600e549051908152f35b5034610317576020366003190112610317576118ad6121ff565b6007546001600160a01b039081169391338590036112f0571692831561194e578314611940578260805152600960205260ff8260805120541661193257508160805152600960205260805120600160ff198254161790557f90811a8edd3b3c17eeaefffc17f639cc69145d41a359c9843994dc2538203690608051608051a260805180f35b9051632944b29f60e11b8152fd5b90516321624f9d60e11b8152fd5b509051630f3ae2cb60e11b8152fd5b503461031757602036600319011261031757600754823592906001600160a01b0316330361156857805483106119c1577f3c8eb7c49d332f4c1e4d92a27cda93c31cc9452f7a408e0c6109fcddbc9946ea6020848481600d5551908152a160805180f35b90516364ccaa4560e01b8152fd5b50346103175760203660031901126103175760ff60085460a01c16611a41573360805152600960205260ff81608051205416611a34573360805152600a60205260ff81608051205416611a27576102b88235336126d1565b5163129de3d360e01b8152fd5b5163644ca72b60e11b8152fd5b5163e779249560e01b8152fd5b5034610317578060031936011261031757611a676121ff565b60075460243592916001600160a01b039182163303610a0c5716928360805152600a60205260ff82608051205416610ffe576002600c5414611b6c576002600c558315611b5e57308414611b50578054611ac184826124e7565b600d5410611b4157918391611af97f0f6798a560793a54c3bcfe86a93cde1e73087d944c0ea20544137d4121396885956020956124e7565b90558460805152600583528060805120611b148382546124e7565b905584815183815260008051602061277d8339815191528560805192a351908152a26001600c5560805180f35b509051636138751160e11b8152fd5b9051631d7f595360e11b8152fd5b9051630fa894ad60e01b8152fd5b90516306fda65d60e31b8152fd5b50903461031757608051366003190112610317576007546001600160a01b03163303611568576008549160ff8360a01c1615611be85760ff60a01b1983166008556080517f7805862f689e2f13df9f062ff482ad3ad112aca9e0847911ed832e158c525b339080a160805180f35b51636cd6020160e01b8152fd5b5034610317578060031936011261031757611c0e6121ff565b9160ff60085460a01c16611038573360805152600960205260ff8260805120541661102a573360805152600a60205260ff82608051205416610ffe5750610ff7602092336080515260068452826080512060018060a01b038216608051528452611c7f6024358460805120546124e7565b903361253a565b50346103175760805136600319011261031757602090611ca461238e565b9051908152f35b50346103175760805136600319011261031757602090600d549051908152f35b5034610317576080513660031901126103175760209060ff600354169051908152f35b50346103175760805136600319011261031757602090517f6e71edae12b1b97f4d1f60370fef10105fa2faae0126114a169c64845d6126c98152f35b50903461031757611d3a36612265565b600754909391926001600160a01b039182163303610f4d578415610f3f57506080515b848110611d6a5760805180f35b8082611d7c610ee36001948989612354565b16806080515260096020528460805120805460ff811615611dcb5760ff191690556080517fc3776b472ebf54114339eec9e4dc924e7ce307a97f5c1ee72b6d474e6e5e8b7c9080a25b01611d5d565b505050611dc5565b503461031757611de236612230565b9360ff60089392935460a01c16611ea15760018060a01b03808316908160805152600960205260ff86608051205416611e91578416908160805152600960205260ff86608051205416611e915760805152600a60205260ff85608051205416611e825760805152600a60205260ff84608051205416611e74575092610ff791602094611e6f8333836125bf565b61261b565b835163129de3d360e01b8152fd5b50835163129de3d360e01b8152fd5b855163644ca72b60e11b81528390fd5b835163e779249560e01b8152fd5b50903461031757608051366003190112610317576007546001600160a01b03929083163303611f045760085492831615611ef7576001600160a01b0319831660085560805180f35b5163357a03ed60e21b8152fd5b51632e6c18c960e11b8152fd5b50346103175760805136600319011261031757602091549051908152f35b50903461031757602036600319011261031757611f4a6121ff565b6007546001600160a01b039190821633036112f0576002600c5414612019576002600c551691821561200c5730608051526005602052806080512054918215611ffe57507f46d2e6e71fc567877b817ff3d940571f989d4ee4d40f2b70806d36e738feef6f916020913060805152600583526080518160805120558460805152806080512082815401905584815183815260008051602061277d833981519152853092a351908152a26001600c5560805180f35b9051635e4f582160e11b8152fd5b51638664045160e01b8152fd5b83516306fda65d60e31b81528390fd5b50346103175780600319360112610317576120426121ff565b9160ff60085460a01c16611038573360805152600960205260ff8260805120541661102a573360805152600a60205260ff82608051205416610ffe5750610ff7602092602435903361253a565b9050346103175760805136600319011261031757608051600180546120b381612128565b80855291602091600181169081156113bc57506001146120de5761135c858761135282880383612194565b608080516001905251935060008051602061279d8339815191525b838510612115575050505081016020016113528261135c611341565b80548686018401529382019381016120f9565b90600182811c92168015612158575b602083101461214257565b634e487b7160e01b600052602260045260246000fd5b91607f1691612137565b6080810190811067ffffffffffffffff82111761217e57604052565b634e487b7160e01b600052604160045260246000fd5b90601f8019910116810190811067ffffffffffffffff82111761217e57604052565b6020808252825181830181905290939260005b8281106121eb57505060409293506000838284010152601f8019910116010190565b8181018601518482016040015285016121c9565b600435906001600160a01b038216820361221557565b600080fd5b602435906001600160a01b038216820361221557565b6060906003190112612215576001600160a01b0390600435828116810361221557916024359081168103612215579060443590565b9060206003198301126122155760043567ffffffffffffffff9283821161221557806023830112156122155781600401359384116122155760248460051b83010111612215576024019190565b34612215576020366003190112612215576001600160a01b036122d36121ff565b16600052600a602052602060ff604060002054166040519015158152f35b67ffffffffffffffff811161217e57601f01601f191660200190565b81601f8201121561221557803590612324826122f1565b926123326040519485612194565b8284526020838301011161221557816000926020809301838601378301015290565b91908110156123645760051b0190565b634e487b7160e01b600052603260045260246000fd5b356001600160a01b03811681036122155790565b60408051600060019160015491816123a584612128565b9182825260209586830195876001821691826000146124c957505060011461247e575b506123d592500382612194565b5190208251909267ffffffffffffffff918082018381118282101761217e57603160f81b91859184526001815201528051928301937f8b73c3c69bb8fe3d512ecc4cf759cc79239f7b179b0ffacaa9a75d522b39400f8552818401527fc89efdaa54c0f20c7adf612882df0950f5a951637e0307cdcb4c672f298b8bc660608401524660808401523060a084015260a0835260c08301918383109083111761217e575251902090565b869150600160005260008051602061279d833981519152906000915b8583106124b15750506123d59350820101386123c8565b8054838801850152869450889390920191810161249a565b60ff191688526123d595151560051b85010192503891506123c89050565b919082018092116124f457565b634e487b7160e01b600052601160045260246000fd5b3d15612535573d9061251b826122f1565b916125296040519384612194565b82523d6000602084013e565b606090565b6001600160a01b039081169182156125ad571691821561259b5760207f8c5be1e5ebec7d5bd14f71427d1e84f3dd0314c0f7b2291e5b200ac8c7c3b925918360005260068252604060002085600052825280604060002055604051908152a3565b60405163076e33c360e31b8152600490fd5b60405163dcdef09960e01b8152600490fd5b9160018060a01b0380931691600093838552600660205260408520911690818552602052604084205490828210612609576040938552600660205283852090855260205203912055565b6040516313be252b60e01b8152600490fd5b6001600160a01b039081169182156126bf57169182156126ad5730831461269b5760008281526005602052816040822054106126895760008051602061277d8339815191529160408285602094526005845281812083815403905586815220818154019055604051908152a3565b604051631e9acf1760e31b8152600490fd5b604051630e927f5760e21b8152600490fd5b60405163a38ca3d960e01b8152600490fd5b60405163f38f85c360e01b8152600490fd5b6001600160a01b031690811561276a5781600052600560205280604060002054106127585760207fcc16f5dbb4873280815c1ee09dbd06736cffcc184412cf7a71a0fdb75d397ca59183600052600582526040600020818154039055806004540360045560008460008051602061277d83398151915284604051858152a3604051908152a2565b60405163588569f760e01b8152600490fd5b604051635bd07a2160e11b8152600490fdfeddf252ad1be2c89b69c2b068fc378daa952ba7f163c4a11628f55a4df523b3efb10e2d527612073b26eecdfd717e6a320cf44b4afac2b0732d9fcbe2b7fa0cf6a264697066735822122046df84fc261b06dcde9550c9e656f538b22291b99eb24ffcffe9030f33c4596d64736f6c63430008190033","linkReferences":{}},"methodIdentifiers":{"DOMAIN_SEPARATOR()":"3644e515","EIP712_DOMAIN_TYPEHASH()":"c7977be7","PERMIT_TYPEHASH()":"30adf81f","acceptOwnership()":"79ba5097","addBlacklist(address)":"9cfe42da","allowance(address,address)":"dd62ed3e","approve(address,uint256)":"095ea7b3","balanceOf(address)":"70a08231","batchAddBlacklist(address[])":"8d128f16","batchFreeze(address[])":"60ea9208","batchRemoveBlacklist(address[])":"a96aea2b","batchUnfreeze(address[])":"2dbc9db9","blacklisted(address)":"dbac26e9","burn(uint256)":"42966c68","burnFrom(address,uint256)":"79cc6790","cancelOwnershipTransfer()":"23452b9c","cap()":"355274ea","decimals()":"313ce567","decreaseAllowance(address,uint256)":"a457c2d7","destroyBlackFunds(address)":"f3bdc228","forceBurn(address,uint256)":"e2d6f634","freezeAddress(address)":"51e946d5","frozen(address)":"d0516650","getAddressStatus(address)":"e226a1b6","getBlackListStatus(address)":"59bf1abe","getOwner()":"893d20e8","increaseAllowance(address,uint256)":"39509351","initialize(string,string,uint8,uint256,address)":"f3571819","initializeV2(uint256,uint256)":"f1056766","isBlackListed(address)":"e47d6060","mint(address,uint256)":"40c10f19","name()":"06fdde03","nonces(address)":"7ecebe00","owner()":"8da5cb5b","pause()":"8456cb59","paused()":"5c975abb","pendingOwner()":"e30c3978","permit(address,address,uint256,uint256,uint8,bytes32,bytes32)":"d505accf","proposeOwnership(address)":"710bf322","recoverTRX(address)":"f3b2bddd","recoverToken(address,address,uint256)":"a7229fd9","recoverTokens(address)":"16114acd","removeBlacklist(address)":"eb91e651","setCap(uint256)":"47786d37","symbol()":"95d89b41","totalSupply()":"18160ddd","transfer(address,uint256)":"a9059cbb","transferFrom(address,address,uint256)":"23b872dd","unfreezeAddress(address)":"bfb80547","unpause()":"3f4ba83a","version()":"54fd4d50"},"id":0}